:020000040800F2
:10000000002800208D120008791000087F100008D9
:10001000851000088B1000089110000800000000F7
:100020000000000000000000000000009710000821
:10003000A310000800000000AF100008BB1000086B
:10004000D5120008D5120008D5120008D5120008F4
:10005000D5120008D5120008D5120008D5120008E4
:10006000D5120008D5120008D5120008D5120008D4
:10007000D5120008D5120008D5120008D5120008C4
:10008000D5120008D5120008D5120008D5120008B4
:10009000D5120008D5120008D5120008D5120008A4
:1000A000D5120008D5120008D5120008D512000894
:1000B000C9100008D512000800000000D512000881
:1000C000D51200080000000000000000D512000852
:1000D00000000000D5120008D51200080000000042
:1000E000D5120008D5120008D51200080000000043
:1000F0000000000000000000000000000000000000
:0C01000000000000000000005FF808F1A3
:10010C0010B5054C237833B9044B13B10448AFF345
:10011C0000800123237010BD3C0000200000000073
:10012C001C29000808B5034B1BB103490348AFF366
:10013C00008008BD00000000400000201C290008C1
:10014C0080B500AF924B1B680133052B00F2148174
:10015C0001A252F823F000BF7D01000885010008C0
:10016C00CB01000837020008A9020008130300089D
:10017C00874B00221A6008E100F0EEF9854B1B68F2
:10018C00854A1360854B1B68854A1360824B1B683C
:10019C00834A12681146184600F0B6FE7F4B1B6866
:1001AC004FF47A7202FB03F3184600F097FF4FF4FA
:1001BC007A7000F0E1FF764B01221A60E5E000F066
:1001CC00CBF9784B1B68012B1DD1734B1B68013B82
:1001DC00714A1360724B1B68013B714A1360704B80
:1001EC001B68002B03DC704B1B686D4A13606A4B59
:1001FC001B686B4A12681146184600F085FE4FF4D6
:10020C007A7000F0B9FF694B1B68012B40F0B68087
:10021C00654B1B684FF47A7202FB03F3184600F02F
:10022C005DFF5B4B02221A60A8E000F095F95D4B74
:10023C001B68012B21D1584B1B68013B564A13609C
:10024C00574B1B68013B564A1360534B1B68002BE2
:10025C0007DC524B1B68504A13604E4B1B68504ACC
:10026C0013604D4B1B684E4A12681146184600F03D
:10027C004BFE4FF47A7000F07FFF4C4B1B68012B48
:10028C007ED1464B1B684FF47A7202FB03F318467F
:10029C0000F024FF3E4B03221A6071E000F05CF981
:1002AC00404B1B68012B1DD13B4B1B68013B3A4A51
:1002BC0013603B4B1B68013B394A1360364B1B6880
:1002CC00002B03DC384B1B68334A1360324B1B6822
:1002DC00334A12681146184600F016FE4FF47A7035
:1002EC0000F04AFF314B1B68012B4BD12E4B1B6886
:1002FC004FF47A7202FB03F3184600F0EFFE244B26
:10030C0004221A603EE000F027F9264B1B68012BF3
:10031C0021D1214B1B68013B1F4A1360204B1B68EA
:10032C00013B1F4A13601C4B1B68002B07DC194B4D
:10033C001B68194A1360194B1B68194A1360164B3A
:10034C001B68174A12681146184600F0DDFD4FF481
:10035C007A7000F011FF154B1B68012B14D10F4B59
:10036C001B684FF47A7202FB03F3184600F0B6FEDA
:10037C00074B01221A6007E000BF06E000BF04E053
:10038C0000BF02E000BF00E000BF00BF80BD00BFA7
:10039C000C00002000000020580000200800002065
:1003AC005C0000209C000020040000208C00002039
:1003BC0080B500AF1D4B1B68072B23D0072B2EDC01
:1003CC00052B02D0062B10D029E000F0C5F84FF415
:1003DC00FA7000F09DFE164B1B681946022000F0C7
:1003EC00C7FD124B06221A601EE0124B1B68012B34
:1003FC0017D14821104801F082FA4FF4FA7000F03E
:10040C0087FE0EE00B4B1B68012B0CD148210A48D0
:10041C0001F075FA4FF4FA7000F07AFE03E000BFB9
:10042C0002E000BF00E000BF00BF80BD0C00002058
:10043C000000002090000020000C014080B500AFAF
:10044C001D4B1B680A2B23D00A2B2EDC082B02D049
:10045C00092B10D029E000F07FF84FF4FA7000F06F
:10046C0057FE164B1B681946032000F081FD124BFA
:10047C0009221A601EE0124B1B68012B17D1902128
:10048C00104801F03CFA4FF4FA7000F041FE0EE017
:10049C000B4B1B68012B0CD190210A4801F02FFA51
:1004AC004FF4FA7000F034FE03E000BF02E000BF2E
:1004BC0000E000BF00BF80BD0C0000200400002045
:1004CC0090000020000C014080B500AF1E4B1B6853
:1004DC000D2B24D00D2B30DC0B2B02D00C2B10D081
:1004EC002BE000F039F84FF4FA7000F011FE174BC6
:1004FC001B681946042000F03BFD134B0C221A60BC
:10050C0020E0134B1B68012B19D14FF4907111484B
:10051C0001F0F5F94FF4FA7000F0FAFD0FE00C4B16
:10052C001B68012B0DD14FF490710A4801F0E7F9CB
:10053C004FF4FA7000F0ECFD03E000BF02E000BFE6
:10054C0000E000BF00BF80BD0C00002008000020B0
:10055C0090000020000C014080B500AF3D4B1B68A3
:10056C000B2B74D801A252F823F000BFA905000888
:10057C00B7050008CF050008E7050008FD050008D1
:10058C00130600085B0600085B0600082B06000833
:10059C005B0600085B0600084306000801224FF4C6
:1005AC00FC712D4801F093F952E000224FF4847154
:1005BC00294801F08CF901225021274801F087F9D4
:1005CC0046E001224FF48071234801F080F90022AB
:1005DC008021214801F07BF93AE0002260211E487D
:1005EC0001F075F9012288211B4801F070F92FE008
:1005FC0001222021184801F06AF900221021164826
:10060C0001F065F924E001224FF4D871124801F091
:10061C005EF900224821104801F059F918E0012236
:10062C004FF4B4710C4801F052F9002290210A48A1
:10063C0001F04DF90CE00122D821074801F047F9EF
:10064C0000224FF49071044801F041F900E000BF22
:10065C0000BF80BD0C000020000C014080B500AF35
:10066C00784B1B78022B40D0022B4DDC002B02D098
:10067C00012B26D048E0002000F0DCF90346002BCB
:10068C003DD0704B01221A706F4B1B68012B02D1AD
:10069C006D4B05221A606C4B1B68062B02D16A4B02
:1006AC0008221A60684B1B68092B02D1664B0B227F
:1006BC001A60654B1B680C2B21D1634B00221A600E
:1006CC001DE0002000F0B6F90346002B03D15D4B72
:1006DC0000221A7015E0002000F0C6F90346002B2A
:1006EC000FD0584B02221A700BE0002000F0A2F938
:1006FC000346002B07D1534B00221A7003E000BFB6
:10070C0002E000BF00E000BF504B1B78022B7CD0F6
:10071C00022B00F38980002B02D0012B61D083E0E7
:10072C00012000F087F90346002B78D0474B0122BB
:10073C001A70454B1B68062B03D0434B1B68072BC9
:10074C0014D1414B07221A60414B1B680133404ABC
:10075C0013603F4B1B68622B02DD3D4B01221A607C
:10076C003B4B1B681946022000F002FC364B1B6801
:10077C00092B03D0344B1B680A2B14D1324B0A22A1
:10078C001A60344B1B680133324A1360314B1B68BF
:10079C00042B02DD2F4B01221A602E4B1B681946CD
:1007AC00032000F0E5FB284B1B680C2B03D0264BD9
:1007BC001B680D2B33D1244B0D221A60264B1B6862
:1007CC000133254A1360244B1B68622B02DD224B3C
:1007DC0001221A60204B1B681946042000F0C8FB4C
:1007EC001DE0012000F026F90346002B03D1174B26
:1007FC0000221A7015E0012000F036F90346002B98
:10080C000FD0124B02221A700BE0012000F012F9EB
:10081C000346002B07D10D4B00221A7003E000BFDA
:10082C0002E000BF00E000BF0C4B1B78022B00F075
:10083C008280022B00F38E80002B11D0012B66D00E
:10084C0088E000BF100000200C00002011000020E8
:10085C0000000020040000200800002012000020EE
:10086C00022000F0E7F80346002B6ED03A4B012231
:10087C001A703A4B1B68072B14D1384B06221A609E
:10088C00374B1A68374B1B689A4204DC354B1B6894
:10089C000133334A1360324B1A68324B1B68D31A3C
:1008AC00314A13602D4B1B680A2B14D12B4B092298
:1008BC001A602B4B1A682B4B1B689A4204DC294B91
:1008CC001B680133264A1360254B1A68254B1B689D
:1008DC00D31A254A1360214B1B680D2B35D11F4BA6
:1008EC000C221A601F4B1A681F4B1B681344622B97
:1008FC0005DD1C4B04221A601B4B5F221A60194B3E
:10090C001A68194B1B681344154A13601DE002202A
:10091C0000F090F80346002B03D10F4B00221A7005
:10092C0015E0022000F0A0F80346002B0FD00A4B74
:10093C0002221A700BE0022000F07CF80346002B18
:10094C0007D1054B00221A7003E000BF02E000BF84
:10095C0000E000BF00BF80BD120000200C00002092
:10096C0000000020040000200800002090B583B097
:10097C0000AF0023FB7146E0FA79FB792649895CCC
:10098C00264AD154FB79264A32F81330FC791946A1
:10099C00244800F085FF03461A461F4B1A55FB7975
:1009AC001D4AD25CFB791D49CB5C9A4205D1FA7980
:1009BC00FB791949895C1C4AD154FB791A4AD35CDE
:1009CC00002B14D1FB79194A32F81330632B09D858
:1009DC00FB79164A32F81320013291B2134A22F8ED
:1009EC0013100DE0FB79124A0121D15408E0FB7978
:1009FC000E4A002122F81310FB790D4A0021D15424
:100A0C00FB790133FB71FB79022BB5D900BF00BF19
:100A1C000C37BD4690BD00BF64000020680000206C
:100A2C0014000020000C0140600000207000002029
:100A3C006C00002080B483B000AF0346FB71FB79DF
:100A4C00022B01D9002307E0FB79064AD35C002B6B
:100A5C000CBF01230023DBB218460C37BD4680BC0B
:100A6C00704700BF6000002080B483B000AF034625
:100A7C00FB71FB79022B01D9002307E0FB79064AB5
:100A8C00D35C012B0CBF01230023DBB218460C37BF
:100A9C00BD4680BC704700BF6C00002080B582B0A2
:100AAC0000AF00F013FC00F02DF800F0B3F800F0EC
:100ABC0065F8124801F068FB7D2000F043FB002331
:100ACC007B60FFF73DFBFFF773FCFFF7B7FCFFF70D
:100ADC00FBFCFFF7C3FD0A4B1B68012BF1D17B68B4
:100AEC005A1C7A60184600F0AFF97B68032B01DDC5
:100AFC0000237B607D2000F025FBE2E7A0000020B6
:100B0C009400002080B590B000AF07F118032822A4
:100B1C000021184601F0F4FE3B1D00221A605A60B9
:100B2C009A60DA601A610223BB610123BB62102355
:100B3C00FB6200237B6307F11803184600F0F8FEF4
:100B4C000346002B01D000F0D3F80F237B60002369
:100B5C00BB600023FB6000233B6100237B613B1DDA
:100B6C000021184601F064F90346002B01D000F077
:100B7C00BFF800BF4037BD4680BD000080B586B0D1
:100B8C0000AF07F1080300221A605A609A60DA601D
:100B9C003B4600221A605A601D4B4FF080421A608F
:100BAC001B4B41F63F725A60194B00229A60184B4E
:100BBC000922DA60164B00221A61154B00229A6149
:100BCC00134801F091FA0346002B01D000F090F885
:100BDC004FF48053BB6007F1080319460C4801F031
:100BEC0027FC0346002B01D000F082F800233B6069
:100BFC0000237B603B461946054801F0F3FD034694
:100C0C00002B01D000F074F800BF1837BD4680BD32
:100C1C00A000002080B586B000AF07F108030022C9
:100C2C001A605A609A60DA60284B9B69274A43F035
:100C3C0004039361254B9B6903F004037B607B6881
:100C4C00224B9B69214A43F0080393611F4B9B691C
:100C5C0003F008033B603B68002240F6FE711C4821
:100C6C0000F035FE00224FF4FC711A4800F02FFE04
:100C7C0040F6FE73BB600123FB6000233B61022343
:100C8C007B6107F108031946114800F08FFC07231C
:100C9C00BB600023FB6000233B6107F1080319468E
:100CAC000C4800F083FC4FF4FC73BB600123FB6029
:100CBC0000233B6102237B6107F1080319460548B9
:100CCC0000F074FC00BF1837BD4680BD0010024018
:100CDC0000080140000C014080B582B000AF786084
:100CEC0000F064FAFFF742FE00BF0837BD4680BD36
:100CFC0080B400AF72B600BFFEE7000080B582B0D2
:100D0C0000AF78607B68092B00F2918001A252F849
:100D1C0023F000BF490D0008630D00087B0D00088F
:100D2C00950D0008AF0D0008C90D0008E30D000873
:100D3C00FB0D0008130E0008210E000800224FF4D2
:100D4C00FC61404800F0C3FD01224FF400613D48B6
:100D5C0000F0BDFD72E00022C0213A4800F0B7FD62
:100D6C0001224FF47261374800F0B1FD66E00022B9
:100D7C004FF43661334800F0AAFD01224FF4906124
:100D8C00304800F0A4FD59E000224FF41E612D48BC
:100D9C0000F09DFD01224FF4C0612A4800F097FD40
:100DAC004CE000224FF44C61264800F090FD0122EB
:100DBC004FF44871234800F08AFD3FE000224FF4C5
:100DCC005A61204800F083FD01224FF410711D4838
:100DDC0000F07DFD32E000224FF47A61194800F0FA
:100DEC0076FD01224021174800F071FD26E000221B
:100DFC00E021144800F06BFD01224FF470611148A2
:100E0C0000F065FD1AE000224FF47E610D4800F001
:100E1C005EFD13E000224FF45E610A4800F057FDBE
:100E2C0001224FF40071074800F051FD06E0012249
:100E3C004FF47E61034800F04AFD00BF00BF083745
:100E4C00BD4680BD0008014080B582B000AF78601F
:100E5C007B68032B4AD801A252F823F0790E0008C4
:100E6C00990E0008B90E0008D90E000801221C21A9
:100E7C00234800F02CFD234B1B681846FFF73EFF60
:100E8C00002202211E4800F022FD35E001221A2129
:100E9C001B4800F01CFD1B4B5B681846FFF72EFF30
:100EAC0000220421164800F012FD25E00122162133
:100EBC00134800F00CFD134B9B681846FFF71EFF00
:100ECC00002208210E4800F002FD15E001220E213F
:100EDC000B4800F0FCFC0B4BDB681846FFF70EFFD1
:100EEC0000221021064800F0F2FC05E001221E2130
:100EFC00034800F0ECFC00BF00BF0837BD4680BDC6
:100F0C00000801401C00002080B483B000AF786062
:100F1C0039607B68144A82FB03129210DB17D31AD8
:100F2C00124A1360114B1B686FF0090202FB03F2AB
:100F3C007B6813440D4A53603B680B4A82FB0312D7
:100F4C009210DB17D31A094A9360084B9B686FF019
:100F5C00090202FB03F23B681344044AD36000BF4E
:100F6C000C37BD4680BC7047676666661C00002067
:100F7C0080B483B000AF786039600F4B00221A60E8
:100F8C000D4A7B6853603B680C4A82FB031292103B
:100F9C00DB17D31A084A9360074B9B686FF0090262
:100FAC0002FB03F23B681344034AD36000BF0C37C7
:100FBC00BD4680BC704700BF1C000020676666669B
:100FCC0080B485B000AF154B9B69144A43F0010304
:100FDC009361124B9B6903F00103BB60BB680F4B21
:100FEC00DB690E4A43F08053D3610C4BDB6903F091
:100FFC0080537B607B680A4B5B68FB60FB6823F06B
:10100C00E063FB60FB6843F08063FB60044AFB68B1
:10101C00536000BF1437BD4680BC704700100240BF
:10102C000000014080B584B000AF78607B681B681D
:10103C00B3F1804F13D10C4BDB690B4A43F0010326
:10104C00D361094BDB6903F00103FB60FB680022F1
:10105C0000211C2000F073FA1C2000F08CFA00BF59
:10106C001037BD4680BD00BF0010024080B400AFF9
:10107C00FEE780B400AFFEE780B400AFFEE780B4BB
:10108C0000AFFEE780B400AFFEE780B400AF00BF56
:10109C00BD4680BC704780B400AF00BFBD4680BC6D
:1010AC00704780B400AF00BFBD4680BC704780B5B0
:1010BC0000AF00F051F900BF80BD000080B500AF5B
:1010CC00024801F0ADF800BF80BD00BFA0000020B9
:1010DC0080B400AF00BFBD4680BC704780B483B005
:1010EC0000AF7860074B1B687A6892FBF3F3064AF3
:1010FC001360064B00221A6000BF0C37BD4680BC43
:10110C00704700BF30000020780000208C000020C9
:10111C0080B483B000AF7860074B1B687A6892FB91
:10112C00F3F3064A1360064B00221A6000BF0C371B
:10113C00BD4680BC704700BF300000207C00002002
:10114C009000002080B483B000AF7860074B1B6820
:10115C007A6892FBF3F3064A1360064B00221A607E
:10116C0000BF0C37BD4680BC704700BF300000206C
:10117C00800000209400002080B483B000AF786021
:10118C00074B1B687A6892FBF3F3064A1360064B15
:10119C0000221A6000BF0C37BD4680BC704700BFF0
:1011AC0030000020880000209C00002080B400AF9C
:1011BC00294B1B68002B0BDD274B1B68013B264A78
:1011CC001360254B1B68002B02D1244B01221A60A3
:1011DC00234B1B68002B0BDD214B1B68013B204A6A
:1011EC0013601F4B1B68002B02D11E4B01221A608F
:1011FC001D4B1B68002B0BDD1B4B1B68013B1A4A5C
:10120C001360194B1B68002B02D1184B01221A607A
:10121C00174B1B68002B0BDD154B1B68013B144A4D
:10122C001360134B1B68002B02D1124B01221A6066
:10123C00114B1B68002B0BDD0F4B1B68013B0E4A3F
:10124C0013600D4B1B68002B02D10C4B01221A6052
:10125C0000BFBD4680BC7047780000208C00002089
:10126C007C000020900000208000002094000020D2
:10127C008400002098000020880000209C000020A2
:10128C00FFF726FF0B480C490C4A002302E0D45808
:10129C00C4500433C4188C42F9D3094A094C0023B6
:1012AC0001E013600432A242FBD301F005FBFFF70F
:1012BC00F5FB7047000000203C000020602900086E
:1012CC003C000020EC000020FEE7000080B500AFE1
:1012DC00084B1B68074A43F010031360032000F00F
:1012EC0023F90F2000F008F8FFF76AFE00231846D8
:1012FC0080BD00BF0020024080B582B000AF786096
:10130C00124B1A68124B1B7819464FF47A73B3FBC5
:10131C00F1F3B2FBF3F3184600F03BF90346002B54
:10132C0001D001230EE07B680F2B0AD800227968CC
:10133C004FF0FF3000F003F9064A7B68136000237E
:10134C0000E0012318460837BD4680BD2C00002064
:10135C00380000203400002080B400AF054B1B780F
:10136C001A46054B1B681344034A136000BFBD4665
:10137C0080BC704738000020E800002080B400AF2B
:10138C00024B1B681846BD4680BC7047E800002025
:10139C0080B485B000AF78607B6803F00703FB6016
:1013AC000C4BDB68BB60BA684FF6FF031340BB60A5
:1013BC00FB681A02BB68134343F0BF6343F400336A
:1013CC00BB60044ABB68D36000BF1437BD4680BC09
:1013DC00704700BF00ED00E080B400AF044BDB6849
:1013EC001B0A03F007031846BD4680BC704700BFBC
:1013FC0000ED00E080B483B000AF0346FB7197F9B9
:10140C000730002B0BDBFB7903F01F02064997F921
:10141C0007305B09012000FA02F241F8232000BFDB
:10142C000C37BD4680BC704700E100E080B483B04F
:10143C0000AF03463960FB7197F90730002B0ADBCC
:10144C003B68DAB20C4997F907301201D2B20B445F
:10145C0083F800230AE03B68DAB20849FB7903F011
:10146C000F03043B1201D2B20B441A7600BF0C37A7
:10147C00BD4680BC704700BF00E100E000ED00E01D
:10148C0080B489B000AFF860B9607A60FB6803F093
:10149C000703FB61FB69C3F10703042B28BF04237B
:1014AC00BB61FB690433062B02D9FB69033B00E0EB
:1014BC0000237B614FF0FF32BB6902FA03F3DA437E
:1014CC00BB681A407B699A404FF0FF317B6901FA87
:1014DC0003F3D9437B680B40134318462437BD46AE
:1014EC0080BC704780B582B000AF78607B68013BF0
:1014FC00B3F1807F01D301230FE00A4A7B68013BE3
:10150C0053600F214FF0FF30FFF790FF054B002287
:10151C009A60044B07221A60002318460837BD4610
:10152C0080BD00BF10E000E080B582B000AF7860F5
:10153C007868FFF72DFF00BF0837BD4680BD80B52A
:10154C0086B000AF0346B9607A60FB7300237B6101
:10155C00FFF742FF78617A68B9687869FFF790FF06
:10156C00024697F90F3011461846FFF75FFF00BF90
:10157C001837BD4680BD80B582B000AF0346FB7105
:10158C0097F907301846FFF735FF00BF0837BD46FF
:10159C0080BD80B582B000AF78607868FFF7A2FF9D
:1015AC00034618460837BD4680BD000080B48BB09A
:1015BC0000AF7860396000237B6200233B6248E116
:1015CC0001227B6A02FA03F3FB613B681B68FA6930
:1015DC001340BB61BA69FB699A4240F037813B68A2
:1015EC005B68A34A93425ED0A14A934275D8A14A44
:1015FC00934258D09F4A93426FD89F4A934252D0FD
:10160C009D4A934269D89D4A93424CD09B4A93423F
:10161C0063D89B4A934246D0994A93425DD8122B89
:10162C002AD8122B59D801A252F823F0B31600086D
:10163C008D1600089F160008E1160008E716000832
:10164C00E7160008E7160008E7160008E71600087A
:10165C00E7160008E7160008E7160008E71600086A
:10166C00E7160008E7160008E7160008E71600085A
:10167C0095160008A9160008824A934213D02CE054
:10168C003B68DB683B6229E03B68DB6804333B6208
:10169C0024E03B68DB6808333B621FE03B68DB6897
:1016AC000C333B621AE03B689B68002B02D104238D
:1016BC003B6213E03B689B68012B05D108233B621E
:1016CC007B68FA691A6109E008233B627B68FA6956
:1016DC005A6103E000233B6200E000BFBB69FF2BB3
:1016EC0001D87B6801E07B6804337B61BB69FF2B0D
:1016FC0002D87B6A9B0002E07B6A083B9B003B6143
:10170C007B691A680F213B6901FA03F3DB431A402A
:10171C00396A3B6901FA03F31A437B691A603B6827
:10172C005B6803F08053002B00F09080564B9B6954
:10173C00554A43F001039361534B9B6903F001033A
:10174C00BB60BB68514A7B6A9B08023352F823305A
:10175C00FB607B6A03F003039B000F2202FA03F386
:10176C00DB43FA681340FB607B68494A93420DD017
:10177C007B68484A934207D07B68474A934201D121
:10178C00022304E0032302E0012300E000237A6A31
:10179C0002F0030292009340FA681343FB603B494A
:1017AC007B6A9B080233FA6841F823203B685B682C
:1017BC0003F48013002B06D0384B9A683749BB6969
:1017CC0013438B6006E0354B9A68BB69DB433349A6
:1017DC0013408B603B685B6803F40013002B06D04E
:1017EC002E4BDA682D49BB691343CB6006E02B4BBB
:1017FC00DA68BB69DB4329491340CB603B685B6803
:10180C0003F40033002B06D0244B5A682349BB69E0
:10181C0013434B6006E0214B5A68BB69DB431F49FD
:10182C0013404B603B685B6803F48033002B06D09D
:10183C001A4B1A681949BB6913430B6006E0174B26
:10184C001A68BB69DB43154913400B607B6A013393
:10185C007B623B681A687B6A22FA03F3002B7FF4E5
:10186C00AFAE00BF00BF2C37BD4680BC704700BF79
:10187C000000321000003110000022100000211076
:10188C000000121000001110001002400000014076
:10189C0000080140000C0140001001400004014010
:1018AC0080B485B000AF78600B467B807B689A680B
:1018BC007B881340002B02D00123FB7301E0002333
:1018CC00FB73FB7B18461437BD4680BC704780B455
:1018DC0083B000AF78600B467B8013467B707B78BF
:1018EC00002B03D07A887B681A6103E07B881A048A
:1018FC007B681A6100BF0C37BD4680BC704780B452
:10190C0085B000AF78600B467B807B68DB68FB6042
:10191C007A88FB6813401A04FB68D9437B880B4018
:10192C001A437B681A6100BF1437BD4680BC7047F0
:10193C0080B586B000AF78607B68002B01D10123A5
:10194C006CE27B681B6803F00103002B00F08780BE
:10195C00924B5B6803F00C03042B0CD08F4B5B6831
:10196C0003F00C03082B12D18C4B5B6803F480330F
:10197C00B3F5803F0BD1894B1B6803F40033002B6C
:10198C006CD07B685B68002B68D1012346E27B68D6
:10199C005B68B3F5803F06D1804B1B687F4A43F4EC
:1019AC00803313602EE07B685B68002B0CD17B4B83
:1019BC001B687A4A23F480331360784B1B68774A90
:1019CC0023F4802313601DE07B685B68B3F5A02FC4
:1019DC000CD1724B1B68714A43F4802313606F4B1C
:1019EC001B686E4A43F4803313600BE06B4B1B682F
:1019FC006A4A23F480331360684B1B68674A23F4EC
:101A0C00802313607B685B68002B13D0FFF7B6FC58
:101A1C00386108E0FFF7B2FC02463B69D31A642B2D
:101A2C0001D90323FAE15D4B1B6803F40033002B4F
:101A3C00F0D014E0FFF7A2FC386108E0FFF79EFC41
:101A4C0002463B69D31A642B01D90323E6E1534BBD
:101A5C001B6803F40033002BF0D100E000BF7B685F
:101A6C001B6803F00203002B63D04C4B5B6803F044
:101A7C000C03002B0BD0494B5B6803F00C03082BB9
:101A8C001CD1464B5B6803F48033002B16D1434BBF
:101A9C001B6803F00203002B05D07B681B69012B2C
:101AAC0001D00123BAE13D4B1B6823F0F8027B689F
:101ABC005B69DB00394913430B603AE07B681B69B7
:101ACC00002B20D0364B01221A60FFF757FC3861EF
:101ADC0008E0FFF753FC02463B69D31A022B01D9ED
:101AEC0003239BE12D4B1B6803F00203002BF0D06A
:101AFC002A4B1B6823F0F8027B685B69DB002749E3
:101B0C0013430B6015E0264B00221A60FFF736FCDE
:101B1C00386108E0FFF732FC02463B69D31A022B0E
:101B2C0001D903237AE11D4B1B6803F00203002B40
:101B3C00F0D17B681B6803F00803002B3AD07B685C
:101B4C009B69002B19D0174B01221A60FFF716FC6A
:101B5C00386108E0FFF712FC02463B69D31A022BEE
:101B6C0001D903235AE10D4B5B6A03F00203002BEE
:101B7C00F0D0012000F09AFA1CE00A4B00221A6007
:101B8C00FFF7FCFB38610FE0FFF7F8FB02463B69FF
:101B9C00D31A022B08D9032340E100BF00100240E6
:101BAC0000004242800442429E4B5B6A03F00203F7
:101BBC00002BE9D17B681B6803F00403002B00F0B9
:101BCC00A6800023FB75974BDB6903F08053002B39
:101BDC000DD1944BDB69934A43F08053D361914B05
:101BEC00DB6903F08053BB60BB680123FB758E4B34
:101BFC001B6803F48073002B18D18B4B1B688A4A2B
:101C0C0043F480731360FFF7B9FB386108E0FFF70A
:101C1C00B5FB02463B69D31A642B01D90323FDE0C3
:101C2C00814B1B6803F48073002BF0D07B68DB685E
:101C3C00012B06D17B4B1B6A7A4A43F001031362DA
:101C4C002DE07B68DB68002B0CD1764B1B6A754A48
:101C5C0023F001031362734B1B6A724A23F00403D3
:101C6C0013621CE07B68DB68052B0CD16D4B1B6A87
:101C7C006C4A43F0040313626A4B1B6A694A43F0D3
:101C8C00010313620BE0674B1B6A664A23F00103E6
:101C9C001362644B1B6A634A23F0040313627B6870
:101CAC00DB68002B15D0FFF769FB38610AE0FFF702
:101CBC0065FB02463B69D31A41F28832934201D943
:101CCC000323ABE0574B1B6A03F00203002BEED04F
:101CDC0014E0FFF753FB38610AE0FFF74FFB0246B5
:101CEC003B69D31A41F28832934201D9032395E020
:101CFC004C4B1B6A03F00203002BEED1FB7D012B36
:101D0C0005D1484BDB69474A23F08053D3617B688C
:101D1C00DB69002B00F08180424B5B6803F00C0305
:101D2C00082B61D07B68DB69022B46D13F4B00222C
:101D3C001A60FFF723FB386108E0FFF71FFB024630
:101D4C003B69D31A022B01D9032367E0354B1B687F
:101D5C0003F00073002BF0D17B681B6AB3F5803F56
:101D6C0008D1304B5B6823F400327B689B682D49AB
:101D7C0013434B602B4B5B6823F474127B68196A1A
:101D8C007B685B6A0B43274913434B60274B01224B
:101D9C001A60FFF7F3FA386108E0FFF7EFFA024632
:101DAC003B69D31A022B01D9032337E01D4B1B6867
:101DBC0003F00073002BF0D02FE01C4B00221A60B4
:101DCC00FFF7DCFA386108E0FFF7D8FA02463B6906
:101DDC00D31A022B01D9032320E0124B1B6803F00A
:101DEC000073002BF0D118E07B68DB69012B01D16B
:101DFC00012313E00B4B5B68FB60FB6803F4803240
:101E0C007B681B6A9A4206D1FB6803F470127B68EC
:101E1C005B6A9A4201D0012300E000231846183770
:101E2C00BD4680BD00100240007000406000424280
:101E3C0080B584B000AF786039607B68002B01D12D
:101E4C000123D0E06A4B1B6803F007033A689A42FF
:101E5C0010D9674B1B6823F0070265493B68134395
:101E6C000B60634B1B6803F007033A689A4201D07E
:101E7C000123B8E07B681B6803F00203002B20D021
:101E8C007B681B6803F00403002B05D0594B5B687F
:101E9C00584A43F4E06353607B681B6803F0080303
:101EAC00002B05D0534B5B68524A43F4605353608C
:101EBC00504B5B6823F0F0027B689B684D491343E1
:101ECC004B607B681B6803F00103002B40D07B68E0
:101EDC005B68012B07D1474B1B6803F40033002BC5
:101EEC0015D101237FE07B685B68022B07D1414B46
:101EFC001B6803F00073002B09D1012373E03D4BE9
:101F0C001B6803F00203002B01D101236BE0394B5A
:101F1C005B6823F003027B685B68364913434B60B4
:101F2C00FFF72CFAF8600AE0FFF728FA0246FB6884
:101F3C00D31A41F28832934201D9032353E02D4B3B
:101F4C005B6803F00C027B685B689B009A42EBD1E8
:101F5C00274B1B6803F007033A689A4210D2244BB4
:101F6C001B6823F0070222493B6813430B60204B8C
:101F7C001B6803F007033A689A4201D0012332E050
:101F8C007B681B6803F00403002B08D0194B5B68BB
:101F9C0023F4E0627B68DB68164913434B607B6873
:101FAC001B6803F00803002B09D0124B5B6823F469
:101FBC0060527B681B69DB000E4913434B6000F0D9
:101FCC0021F802460B4B5B681B0903F00F030A490F
:101FDC00CB5C22FA03F3094A1360094B1B681846C1
:101FEC00FFF78AF9002318461037BD4680BD00BFA5
:101FFC000020024000100240342900082C00002070
:10200C003400002080B487B000AF0023FB600023B5
:10201C00BB6000237B6100237B6000233B611E4B74
:10202C005B68FB60FB6803F00C03042B02D0082BED
:10203C0003D027E0194B3B6127E0FB689B0C03F0B6
:10204C000F03174AD35C7B60FB6803F48033002BCF
:10205C0010D0114B5B685B0C03F00103114AD35C8D
:10206C00BB607B680D4A02FB03F2BB68B2FBF3F367
:10207C007B6104E07B680C4A02FB03F37B617B69A8
:10208C003B6102E0054B3B6100BF3B6918461C37C6
:10209C00BD4680BC704700BF0010024000127A00A1
:1020AC00442900085429000800093D0080B485B07B
:1020BC0000AF78600A4B1B680A4AA2FB03235B0A39
:1020CC007A6802FB03F3FB6000BFFB685A1EFA60E0
:1020DC00002BF9D100BF00BF1437BD4680BC704740
:1020EC002C000020D34D621080B582B000AF786018
:1020FC007B68002B01D1012341E07B6893F83D30D4
:10210C00DBB2002B06D17B68002283F83C20786878
:10211C00FEF788FF7B68022283F83D207B681A68F3
:10212C007B6804331946104600F06EFA7B68012276
:10213C0083F846207B68012283F83E207B680122CD
:10214C0083F83F207B68012283F840207B680122C2
:10215C0083F841207B68012283F842207B680122AE
:10216C0083F843207B68012283F844207B6801229A
:10217C0083F845207B68012283F83D200023184614
:10218C000837BD4680BD000080B485B000AF7860D4
:10219C007B6893F83D30DBB2012B01D0012335E095
:1021AC007B68022283F83D207B681B68DA687B68B9
:1021BC001B6842F00102DA607B681B68164A934286
:1021CC0009D07B681B68B3F1804F04D07B681B6817
:1021DC00124A934211D17B681B689B6803F007037A
:1021EC00FB60FB68062B10D07B681B681A687B6849
:1021FC001B6842F001021A6007E07B681B681A68D2
:10220C007B681B6842F001021A60002318461437E1
:10221C00BD4680BC704700BF002C0140000400404C
:10222C0080B582B000AF78607B681B681B6903F0D7
:10223C000203022B22D17B681B68DB6803F00203CC
:10224C00022B1BD17B681B686FF002021A617B6842
:10225C0001221A777B681B689B6903F00303002B30
:10226C0003D0786800F0B4F905E0786800F0A7F9BD
:10227C00786800F0B6F97B6800221A777B681B68D7
:10228C001B6903F00403042B22D17B681B68DB68F9
:10229C0003F00403042B1BD17B681B686FF0040252
:1022AC001A617B6802221A777B681B689B6903F4AE
:1022BC004073002B03D0786800F08AF905E0786849
:1022CC0000F07DF9786800F08CF97B6800221A77B1
:1022DC007B681B681B6903F00803082B22D17B6801
:1022EC001B68DB6803F00803082B1BD17B681B6899
:1022FC006FF008021A617B6804221A777B681B68EE
:10230C00DB6903F00303002B03D0786800F060F95D
:10231C0005E0786800F053F9786800F062F97B68A2
:10232C0000221A777B681B681B6903F01003102BC3
:10233C0022D17B681B68DB6803F01003102B1BD1C8
:10234C007B681B686FF010021A617B6808221A7791
:10235C007B681B68DB6903F44073002B03D078683F
:10236C0000F036F905E0786800F029F9786800F09B
:10237C0038F97B6800221A777B681B681B6903F0AD
:10238C000103012B0ED17B681B68DB6803F0010392
:10239C00012B07D17B681B686FF001021A6178680A
:1023AC00FEF79AFC7B681B681B6903F08003802B8B
:1023BC000ED17B681B68DB6803F08003802B07D190
:1023CC007B681B686FF080021A61786800F06BFA0A
:1023DC007B681B681B6903F04003402B0ED17B68A4
:1023EC001B68DB6803F04003402B07D17B681B683C
:1023FC006FF040021A61786800F0FCF87B681B688B
:10240C001B6903F02003202B0ED17B681B68DB6853
:10241C0003F02003202B07D17B681B686FF0200290
:10242C001A61786800F036FA00BF0837BD4680BDE7
:10243C0080B584B000AF786039600023FB737B6893
:10244C0093F83C30012B01D10223B4E07B680122CC
:10245C0083F83C207B68022283F83D207B681B6854
:10246C009B68BB60BB6823F07703BB60BB6823F43D
:10247C007F43BB607B681B68BA689A603B681B68CB
:10248C00B3F5005F3ED0B3F5005F00F28780B3F583
:10249C00805F00F08680B3F5805F7FD8702B1AD0F8
:1024AC00702B7BD8602B50D0602B77D8502B3CD026
:1024BC00502B73D8402B58D0402B6FD8302B64D076
:1024CC00302B6BD8202B60D0202B67D8002B5CD006
:1024DC00102B5AD062E07B6818683B6899683B689F
:1024EC005A683B68DB6800F05EF97B681B689B6888
:1024FC00BB60BB6843F07703BB607B681B68BA6842
:10250C009A604FE07B6818683B6899683B685A682A
:10251C003B68DB6800F047F97B681B689A687B684E
:10252C001B6842F480429A603CE07B6818683B6808
:10253C0059683B68DB681A4600F0BEF87B681B687C
:10254C005021184600F015F92CE07B6818683B68A0
:10255C0059683B68DB681A4600F0DCF87B681B683E
:10256C006021184600F005F91CE07B6818683B6890
:10257C0059683B68DB681A4600F09EF87B681B685C
:10258C004021184600F0F5F80CE07B681A683B68AF
:10259C001B681946104600F0ECF803E00123FB73AE
:1025AC0000E000BF7B68012283F83D207B6800229D
:1025BC0083F83C20FB7B18461037BD4680BD80B4A9
:1025CC0083B000AF786000BF0C37BD4680BC70474D
:1025DC0080B483B000AF786000BF0C37BD4680BCC0
:1025EC00704780B483B000AF786000BF0C37BD4635
:1025FC0080BC704780B483B000AF786000BF0C37EC
:10260C00BD4680BC7047000080B485B000AF7860D8
:10261C0039607B681B68FB607B68254A934207D056
:10262C007B68B3F1804F03D07B68224A934208D178
:10263C00FB6823F07003FB603B685B68FA6813432C
:10264C00FB607B681A4A934207D07B68B3F1804FDA
:10265C0003D07B68174A934208D1FB6823F440737C
:10266C00FB603B68DB68FA681343FB60FB6823F094
:10267C0080023B685B691343FB607B68FA681A60F5
:10268C003B689A687B68DA623B681A687B689A6276
:10269C007B68074A934203D13B681A697B681A63CB
:1026AC007B6801225A6100BF1437BD4680BC70475D
:1026BC00002C01400004004080B487B000AFF860EB
:1026CC00B9607A60FB681B6A7B61FB681B6A23F04C
:1026DC000102FB681A62FB689B693B613B6923F052
:1026EC00F0033B617B681B013A6913433B617B69D7
:1026FC0023F00A037B617A69BB6813437B61FB6837
:10270C003A699A61FB687A691A6200BF1C37BD4648
:10271C0080BC704780B487B000AFF860B9607A6055
:10272C00FB681B6A7B61FB681B6A23F01002FB6869
:10273C001A62FB689B693B613B6923F470433B6104
:10274C007B681B033A6913433B617B6923F0A0034D
:10275C007B61BB681B017A6913437B61FB683A6937
:10276C009A61FB687A691A6200BF1C37BD4680BC4F
:10277C00704780B485B000AF786039607B689B6827
:10278C00FB60FB6823F07003FB603A68FB68134343
:10279C0043F00703FB607B68FA689A6000BF14374C
:1027AC00BD4680BC704780B487B000AFF860B9609C
:1027BC007A603B60FB689B687B617B6923F47F4399
:1027CC007B613B681A027B681A43BB6813437A69C6
:1027DC0013437B61FB687A699A6000BF1C37BD4666
:1027EC0080BC704780B485B000AF786039607B687E
:1027FC0093F83C30012B01D1022341E07B6801228C
:10280C0083F83C207B68022283F83D207B681B68A0
:10281C005B68FB607B681B689B68BB60FB6823F094
:10282C007003FB603B681B68FA681343FB607B68B2
:10283C001B68FA685A607B681B68144A934209D07B
:10284C007B681B68B3F1804F04D07B681B68104A0F
:10285C0093420CD1BB6823F08003BB603B685B6880
:10286C00BA681343BB607B681B68BA689A607B6864
:10287C00012283F83D207B68002283F83C20002352
:10288C0018461437BD4680BC704700BF002C014071
:10289C000004004080B483B000AF786000BF0C37F8
:1028AC00BD4680BC704780B483B000AF786000BF79
:1028BC000C37BD4680BC704770B500260C4D0D4CD6
:1028CC00641BA410A64209D100F022F800260A4D80
:1028DC000A4C641BA410A64205D170BD55F8043BEC
:1028EC0098470136EEE755F8043B98470136F2E776
:1028FC005829000858290008582900085C290008A4
:10290C0003460244934200D1704703F8011BF9E7D8
:10291C00F8B500BFF8BC08BC9E467047F8B500BFC0
:08292C00F8BC08BC9E46704790
:10293400000000000000000001020304060708096B
:1029440002030405060708090A0B0C0D0E0F1010EC
:04295400010200007C
:042958003101000841
:04295C000D01000861
:10296000050000000200000003000000FFFFFFFF61
:102970000101010001000200040000000800000045
:102980000800000008000000080000000024F40017
:0C2990000A000000100000000100000020
:040000050800128D50
:00000001FF
