:020000040800F2
:1000000000280020911000087D0E0008830E0008D3
:10001000890E00088F0E0008950E000800000000F1
:100020000000000000000000000000009B0E00081F
:10003000A70E000800000000B30E0008BF0E000865
:10004000D9100008D9100008D9100008D9100008EC
:10005000D9100008D9100008D9100008D9100008DC
:10006000D9100008D9100008D9100008D9100008CC
:10007000D9100008D9100008D9100008D9100008BC
:10008000D9100008D9100008D9100008D9100008AC
:10009000D9100008D9100008D9100008D91000089C
:1000A000D9100008D9100008D9100008D91000088C
:1000B000CD0E0008D910000800000000D91000087B
:1000C000D91000080000000000000000D91000084E
:1000D00000000000D9100008D9100008000000003E
:1000E000D9100008D9100008D9100008000000003D
:1000F0000000000000000000000000000000000000
:0C01000000000000000000005FF808F1A3
:10010C0010B5054C237833B9044B13B10448AFF345
:10011C0000800123237010BD3C0000200000000073
:10012C002027000808B5034B1BB103490348AFF364
:10013C00008008BD000000004000002020270008BF
:10014C0080B500AF344B1B680133052B59D801A285
:10015C0052F823F07901000881010008970100088A
:10016C00B5010008D3010008F10100082A4B002258
:10017C001A604FE000F014F9284B1B68184600F089
:10018C00AFFE254B01221A6044E000F009F9244B24
:10019C001B68012B37D1234B1B68184600F0A0FEBF
:1001AC001D4B02221A602EE000F0FAF81C4B1B6863
:1001BC00012B2AD1194B1B68184600F091FE164BE7
:1001CC0003221A6021E000F0EBF8154B1B68012BA1
:1001DC001DD1144B1B68184600F082FE0E4B0422F6
:1001EC001A6014E000F0DCF80D4B1B68012B10D1E9
:1001FC000A4B1B68184600F073FE074B01221A606D
:10020C0007E000BF06E000BF04E000BF02E000BF53
:10021C0000E000BF00BF80BD0C00002008000020E3
:10022C00840000200400002080B500AF1A4B1B682E
:10023C00072B1DD0072B28DC052B02D0062B0AD050
:10024C0023E000F0ADF84FF4FA7000F063FE124BAF
:10025C0006221A601EE0114B1B68012B17D1482196
:10026C000F4801F04EFA4FF4FA7000F053FE0EE016
:10027C000A4B1B68012B0CD14821094801F041FAAB
:10028C004FF4FA7000F046FE03E000BF02E000BF3E
:10029C0000E000BF00BF80BD0C00002088000020E3
:1002AC00000C014080B500AF1A4B1B680A2B1DD007
:1002BC000A2B28DC082B02D0092B0AD023E000F0F3
:1002CC006FF84FF4FA7000F025FE124B09221A60F9
:1002DC001EE0114B1B68012B17D190210F4801F028
:1002EC0010FA4FF4FA7000F015FE0EE00A4B1B6882
:1002FC00012B0CD19021094801F003FA4FF4FA704C
:10030C0000F008FE03E000BF02E000BF00E000BF09
:10031C0000BF80BD0C00002088000020000C0140B4
:10032C0080B500AF1B4B1B680D2B1ED00D2B2ADC90
:10033C000B2B02D00C2B0AD025E000F031F84FF437
:10034C00FA7000F0E7FD134B0C221A6020E0124B00
:10035C001B68012B19D14FF49071104801F0D1F9A1
:10036C004FF4FA7000F0D6FD0FE00B4B1B68012B1D
:10037C000DD14FF49071094801F0C3F94FF4FA70A4
:10038C0000F0C8FD03E000BF02E000BF00E000BFCA
:10039C0000BF80BD0C00002088000020000C014034
:1003AC0080B500AF3D4B1B680B2B74D801A252F8E3
:1003BC0023F000BFF1030008FF0300081704000836
:1003CC002F040008450400085B040008A30400087F
:1003DC00A304000873040008A3040008A304000885
:1003EC008B04000801224FF4FC712D4801F071F9C7
:1003FC0052E000224FF48471294801F06AF901227D
:10040C005021274801F065F946E001224FF4807134
:10041C00234801F05EF900228021214801F059F9AE
:10042C003AE0002260211E4801F053F90122882194
:10043C001B4801F04EF92FE001222021184801F051
:10044C0048F900221021164801F043F924E001225A
:10045C004FF4D871124801F03CF9002248211048A1
:10046C0001F037F918E001224FF4B4710C4801F097
:10047C0030F9002290210A4801F02BF90CE00122FE
:10048C00D821074801F025F900224FF49071044857
:10049C0001F01FF900E000BF00BF80BD0C00002080
:1004AC00000C014080B500AFA04B1B78022B40D054
:1004BC00022B4DDC002B02D0012B26D048E0002073
:1004CC0000F0C6F90346002B3DD0984B01221A7060
:1004DC00974B1B68012B02D1954B05221A60944B4C
:1004EC001B68062B02D1924B08221A60904B1B689A
:1004FC00092B02D18E4B0B221A608D4B1B680C2BD7
:10050C0021D18B4B00221A601DE0002000F0A0F9D5
:10051C000346002B03D1854B00221A7015E00020F6
:10052C0000F0B0F90346002B0FD0804B02221A705A
:10053C000BE0002000F08CF90346002B07D17B4B1D
:10054C0000221A7003E000BF02E000BF00E000BF11
:10055C00784B1B78022B6BD0022B78DC002B02D053
:10056C00012B51D073E0012000F072F90346002BEF
:10057C0068D0704B01221A706D4B1B68062B03D090
:10058C006B4B1B68072B0FD1694B07221A606A4B08
:10059C001B680133684A1360674B1B68674A9342B8
:1005AC0002DD654B01221A60614B1B68092B03D0DD
:1005BC005F4B1B680A2B0ED15D4B0A221A60604BF5
:1005CC001B6801335E4A13605D4B1B68042B02DD14
:1005DC005B4B01221A60564B1B680C2B03D0544BFF
:1005EC001B680D2B2ED1524B0D221A60554B1B68DC
:1005FC000133544A1360534B1B68504A934221DD1C
:10060C00504B01221A601DE0012000F021F9034635
:10061C00002B03D1474B00221A7015E0012000F08B
:10062C0031F90346002B0FD0424B02221A700BE01B
:10063C00012000F00DF90346002B07D13D4B0022A1
:10064C001A7003E000BF02E000BF00E000BF3E4BA9
:10065C001B78022B00F08480022B00F39080002B7F
:10066C0002D0012B57D08AE0022000F0F1F80346AB
:10067C00002B7FD0344B01221A702D4B1B68072B9B
:10068C0014D12B4B06221A602B4B1A682C4B1B686F
:10069C009A4204DC2A4B1B680133274A1360264B11
:1006AC001A68274B1B68D31A264A1360204B1B6809
:1006BC000A2B14D11E4B09221A601F4B1A68204BAF
:1006CC001B689A4204DC1E4B1B6801331A4A1360E8
:1006DC00194B1A681A4B1B68D31A1A4A1360144B1D
:1006EC001B680D2B46D1124B0C221A60144B1A6846
:1006FC00144B1B681344622B05DD114B04221A604A
:10070C00104B5F221A600E4B1A680E4B1B68134479
:10071C00094A13602EE0022000F09AF80346002BE1
:10072C0014D1094B00221A7026E000BF10000020E3
:10073C000C0000201100002000000020B7820100F6
:10074C00040000200800002012000020022000F00D
:10075C0099F80346002B0FD00A4B02221A700BE0BB
:10076C00022000F075F80346002B07D1054B002240
:10077C001A7003E000BF02E000BF00E000BF00BF42
:10078C0080BD00BF1200002090B583B000AF0023E5
:10079C00FB7146E0FA79FB792649895C264AD154EB
:1007AC00FB79264A32F81330FC791946244800F0BC
:1007BC0079FF03461A461F4B1A55FB791D4AD25C2A
:1007CC00FB791D49CB5C9A4205D1FA79FB79194921
:1007DC00895C1C4AD154FB791A4AD35C002B14D186
:1007EC00FB79194A32F81330632B09D8FB79164A76
:1007FC0032F81320013291B2134A22F813100DE093
:10080C00FB79124A0121D15408E0FB790E4A0021F0
:10081C0022F81310FB790D4A0021D154FB790133D6
:10082C00FB71FB79022BB5D900BF00BF0C37BD465D
:10083C0090BD00BF5C000020600000201400002070
:10084C00000C0140580000206800002064000020CB
:10085C0080B483B000AF0346FB71FB79022B01D946
:10086C00002307E0FB79064AD35C002B0CBF012365
:10087C000023DBB218460C37BD4680BC704700BF66
:10088C005800002080B483B000AF0346FB71FB79A5
:10089C00022B01D9002307E0FB79064AD35C012B1C
:1008AC000CBF01230023DBB218460C37BD4680BCBD
:1008BC00704700BF6400002080B586B000AF00F028
:1008CC0007FC00F069F800F0EFF800F0A1F82B48F5
:1008DC0001F05CFBFA2000F037FBFA2000F04EFB35
:1008EC0000237B6100233B61254B1B68254A82FB5F
:1008FC0003129211DB17D31AFB60234B1B68214A9E
:10090C0082FB03129211DB17D31ABB601F4B1B68BF
:10091C001C4A82FB03129211DB17D31A7B60FFF780
:10092C000FFCFFF781FCFFF7BDFCFFF7F9FCFFF7AD
:10093C00B9FD174B1B68012B0DD17B695A1C7A61D1
:10094C00184600F0CBF97B69012B01DD00237B619C
:10095C00FA2000F0F9FA0F4B1B68012BDFD13B6931
:10096C005A1C3A61184600F0F3F93B69012B01DD82
:10097C0000233B61FA2000F001FBD0E79800002037
:10098C0000000020D34D621004000020080000205D
:10099C008C0000209000002080B590B000AF07F1D3
:1009AC00180328220021184601F0ACFE3B1D002242
:1009BC001A605A609A60DA601A610223BB610123E3
:1009CC00BB621023FB6200237B6307F118031846FC
:1009DC0000F0B0FE0346002B01D000F0D3F80F233B
:1009EC007B600023BB600023FB6000233B61002382
:1009FC007B613B1D0021184601F01CF90346002BBE
:100A0C0001D000F0BFF800BF4037BD4680BD0000EC
:100A1C0080B586B000AF07F1080300221A605A6057
:100A2C009A60DA603B4600221A605A601D4B4FF008
:100A3C0080421A601B4B41F63F725A60194B0022E0
:100A4C009A60184B0922DA60164B00221A61154B7A
:100A5C0000229A61134801F049FA0346002B01D099
:100A6C0000F090F84FF48053BB6007F1080319466F
:100A7C000C4801F0DFFB0346002B01D000F082F89C
:100A8C0000233B6000237B603B461946054801F080
:100A9C00ABFD0346002B01D000F074F800BF1837F3
:100AAC00BD4680BD9800002080B586B000AF07F130
:100ABC00080300221A605A609A60DA60284B9B691E
:100ACC00274A43F004039361254B9B6903F004030D
:100ADC007B607B68224B9B69214A43F0080393613E
:100AEC001F4B9B6903F008033B603B68002240F6F8
:100AFC00FE711C4800F0EDFD00224FF4FC711A4809
:100B0C0000F0E7FD40F6FE73BB600123FB600023A1
:100B1C003B6102237B6107F108031946114800F081
:100B2C0047FC0723BB600023FB6000233B6107F1FC
:100B3C00080319460C4800F03BFC4FF4FC73BB60F7
:100B4C000123FB6000233B6102237B6107F1080357
:100B5C001946054800F02CFC00BF1837BD4680BD77
:100B6C000010024000080140000C014080B582B02A
:100B7C0000AF786000F01CFAFFF706FE00BF0837E4
:100B8C00BD4680BD80B400AF72B600BFFEE700006A
:100B9C0080B582B000AF78607B68092B00F2918041
:100BAC0001A252F823F000BFDD0B0008F70B000880
:100BBC000F0C0008290C0008430C00085D0C000801
:100BCC00770C00088F0C0008A70C0008B50C000867
:100BDC0000224FF4FC61404800F07BFD01224FF4F1
:100BEC0000613D4800F075FD72E00022C0213A48DA
:100BFC0000F06FFD01224FF47261374800F069FD7F
:100C0C0066E000224FF43661334800F062FD0122A9
:100C1C004FF49061304800F05CFD59E000224FF435
:100C2C001E612D4800F055FD01224FF4C0612A4889
:100C3C0000F04FFD4CE000224FF44C61264800F0D0
:100C4C0048FD01224FF44871234800F042FD3FE07B
:100C5C0000224FF45A61204800F03BFD01224FF472
:100C6C0010711D4800F035FD32E000224FF47A611E
:100C7C00194800F02EFD01224021174800F029FDF3
:100C8C0026E00022E021144800F023FD01224FF45D
:100C9C007061114800F01DFD1AE000224FF47E61D6
:100CAC000D4800F016FD13E000224FF45E610A4877
:100CBC0000F00FFD01224FF40071074800F009FD10
:100CCC0006E001224FF47E61034800F002FD00BFF4
:100CDC0000BF0837BD4680BD0008014080B582B01A
:100CEC0000AF78607B68002B03D07B68012B10D0A1
:100CFC001FE001220421144800F0EBFC134B1B688D
:100D0C001846FFF745FF002202210F4800F0E1FCD6
:100D1C0015E0012202210C4800F0DBFC0B4B5B6858
:100D2C001846FFF735FF00220421074800F0D1FCDC
:100D3C0005E001221E21044800F0CBFC00BF00BFDF
:100D4C000837BD4680BD00BF000801401C000020D4
:100D5C0080B582B000AF78607B68002B03D07B68D5
:100D6C00012B10D01FE001221021144800F0B1FC1F
:100D7C00134B9B681846FFF70BFF002208210F4806
:100D8C0000F0A7FC15E0012208210C4800F0A1FCA2
:100D9C000B4BDB681846FFF7FBFE002210210748BF
:100DAC0000F097FC05E001221E21044800F091FCA4
:100DBC0000BF00BF0837BD4680BD00BF0008014022
:100DCC001C00002080B485B000AF154B9B69144A01
:100DDC0043F001039361124B9B6903F00103BB6069
:100DEC00BB680F4BDB690E4A43F08053D3610C4B4D
:100DFC00DB6903F080537B607B680A4B5B68FB60AC
:100E0C00FB6823F0E063FB60FB6843F08063FB60EE
:100E1C00044AFB68536000BF1437BD4680BC704762
:100E2C00001002400000014080B584B000AF786033
:100E3C007B681B68B3F1804F13D10C4BDB690B4AF9
:100E4C0043F00103D361094BDB6903F00103FB6041
:100E5C00FB68002200211C2000F073FA1C2000F01B
:100E6C008CFA00BF1037BD4680BD00BF0010024099
:100E7C0080B400AFFEE780B400AFFEE780B400AFF3
:100E8C00FEE780B400AFFEE780B400AFFEE780B4AD
:100E9C0000AF00BFBD4680BC704780B400AF00BF40
:100EAC00BD4680BC704780B400AF00BFBD4680BC5F
:100EBC00704780B500AF00F051F900BF80BD000055
:100ECC0080B500AF024801F0ADF800BF80BD00BF97
:100EDC009800002080B400AF00BFBD4680BC7047B6
:100EEC0080B483B000AF7860074B1B687A6892FBC4
:100EFC00F3F3064A1360064B00221A6000BF0C374E
:100F0C00BD4680BC704700BF300000207000002040
:100F1C008400002080B483B000AF7860074B1B685E
:100F2C007A6892FBF3F3064A1360064B00221A60B0
:100F3C0000BF0C37BD4680BC704700BF300000209E
:100F4C00740000208800002080B483B000AF78606B
:100F5C00074B1B687A6892FBF3F3064A1360064B47
:100F6C0000221A6000BF0C37BD4680BC704700BF22
:100F7C0030000020780000208C00002080B483B06A
:100F8C0000AF7860074B1B687A6892FBF3F3064A54
:100F9C001360064B00221A6000BF0C37BD4680BCA4
:100FAC00704700BF300000207C0000209000002023
:100FBC0080B400AF294B1B68002B0BDD274B1B6843
:100FCC00013B264A1360254B1B68002B02D1244B96
:100FDC0001221A60234B1B68002B0BDD214B1B6875
:100FEC00013B204A13601F4B1B68002B02D11E4B88
:100FFC0001221A601D4B1B68002B0BDD1B4B1B6861
:10100C00013B1A4A1360194B1B68002B02D1184B79
:10101C0001221A60174B1B68002B0BDD154B1B684C
:10102C00013B144A1360134B1B68002B02D1124B6B
:10103C0001221A60114B1B68002B0BDD0F4B1B6838
:10104C00013B0E4A13600D4B1B68002B02D10C4B5D
:10105C0001221A6000BFBD4680BC704770000020A2
:10106C0084000020740000208800002078000020FC
:10107C008C0000207C0000209000002080000020CC
:10108C0094000020FFF726FF0B480C490C4A002364
:10109C0002E0D458C4500433C4188C42F9D3094A22
:1010AC00094C002301E013600432A242FBD301F08F
:1010BC0005FBFFF701FC7047000000203C000020FE
:1010CC00642700083C000020E4000020FEE700003C
:1010DC0080B500AF084B1B68074A43F01003136040
:1010EC00032000F023F90F2000F008F8FFF76AFE48
:1010FC000023184680BD00BF0020024080B582B09E
:10110C0000AF7860124B1A68124B1B7819464FF4DB
:10111C007A73B3FBF1F3B2FBF3F3184600F03BF92F
:10112C000346002B01D001230EE07B680F2B0AD85D
:10113C00002279684FF0FF3000F003F9064A7B6813
:10114C001360002300E0012318460837BD4680BD1C
:10115C002C000020380000203400002080B400AFA8
:10116C00054B1B781A46054B1B681344034A136046
:10117C0000BFBD4680BC704738000020E000002056
:10118C0080B400AF024B1B681846BD4680BC70474C
:10119C00E000002080B485B000AF78607B6803F07D
:1011AC000703FB600C4BDB68BB60BA684FF6FF03B0
:1011BC001340BB60FB681A02BB68134343F0BF6368
:1011CC0043F40033BB60044ABB68D36000BF1437E0
:1011DC00BD4680BC704700BF00ED00E080B400AF9E
:1011EC00044BDB681B0A03F007031846BD4680BCA2
:1011FC00704700BF00ED00E080B483B000AF034641
:10120C00FB7197F90730002B0BDBFB7903F01F0206
:10121C00064997F907305B09012000FA02F241F800
:10122C00232000BF0C37BD4680BC704700E100E0B6
:10123C0080B483B000AF03463960FB7197F9073077
:10124C00002B0ADB3B68DAB20C4997F90730120124
:10125C00D2B20B4483F800230AE03B68DAB20849A7
:10126C00FB7903F00F03043B1201D2B20B441A7644
:10127C0000BF0C37BD4680BC704700BF00E100E0EA
:10128C0000ED00E080B489B000AFF860B9607A601E
:10129C00FB6803F00703FB61FB69C3F10703042B35
:1012AC0028BF0423BB61FB690433062B02D9FB69FD
:1012BC00033B00E000237B614FF0FF32BB6902FA75
:1012CC0003F3DA43BB681A407B699A404FF0FF3155
:1012DC007B6901FA03F3D9437B680B40134318462F
:1012EC002437BD4680BC704780B582B000AF7860B3
:1012FC007B68013BB3F1807F01D301230FE00A4AE5
:10130C007B68013B53600F214FF0FF30FFF790FFDC
:10131C00054B00229A60044B07221A6000231846E2
:10132C000837BD4680BD00BF10E000E080B582B03C
:10133C0000AF78607868FFF72DFF00BF0837BD4617
:10134C0080BD80B586B000AF0346B9607A60FB7390
:10135C0000237B61FFF742FF78617A68B96878698E
:10136C00FFF790FF024697F90F3011461846FFF72A
:10137C005FFF00BF1837BD4680BD80B582B000AF9F
:10138C000346FB7197F907301846FFF735FF00BF8E
:10139C000837BD4680BD80B582B000AF78607868F4
:1013AC00FFF7A2FF034618460837BD4680BD000074
:1013BC0080B48BB000AF7860396000237B6200236F
:1013CC003B6248E101227B6A02FA03F3FB613B6852
:1013DC001B68FA691340BB61BA69FB699A4240F019
:1013EC0037813B685B68A34A93425ED0A14A934223
:1013FC0075D8A14A934258D09F4A93426FD89F4ABE
:10140C00934252D09D4A934269D89D4A93424CD004
:10141C009B4A934263D89B4A934246D0994A934243
:10142C005DD8122B2AD8122B59D801A252F823F0CE
:10143C00B714000891140008A3140008E514000860
:10144C00EB140008EB140008EB140008EB14000874
:10145C00EB140008EB140008EB140008EB14000864
:10146C00EB140008EB140008EB140008EB14000854
:10147C00EB14000899140008AD140008824A93423A
:10148C0013D02CE03B68DB683B6229E03B68DB68EF
:10149C0004333B6224E03B68DB6808333B621FE0AB
:1014AC003B68DB680C333B621AE03B689B68002BA3
:1014BC0002D104233B6213E03B689B68012B05D1EE
:1014CC0008233B627B68FA691A6109E008233B62D6
:1014DC007B68FA695A6103E000233B6200E000BFBD
:1014EC00BB69FF2B01D87B6801E07B6804337B610F
:1014FC00BB69FF2B02D87B6A9B0002E07B6A083B2E
:10150C009B003B617B691A680F213B6901FA03F36D
:10151C00DB431A40396A3B6901FA03F31A437B69CE
:10152C001A603B685B6803F08053002B00F09080DE
:10153C00564B9B69554A43F001039361534B9B698E
:10154C0003F00103BB60BB68514A7B6A9B08023302
:10155C0052F82330FB607B6A03F003039B000F22DD
:10156C0002FA03F3DB43FA681340FB607B68494AD9
:10157C0093420DD07B68484A934207D07B68474A18
:10158C00934201D1022304E0032302E0012300E093
:10159C0000237A6A02F0030292009340FA68134324
:1015AC00FB603B497B6A9B080233FA6841F82320B5
:1015BC003B685B6803F48013002B06D0384B9A68A9
:1015CC003749BB6913438B6006E0354B9A68BB699E
:1015DC00DB43334913408B603B685B6803F40013B7
:1015EC00002B06D02E4BDA682D49BB691343CB6018
:1015FC0006E02B4BDA68BB69DB4329491340CB600F
:10160C003B685B6803F40033002B06D0244B5A680C
:10161C002349BB6913434B6006E0214B5A68BB69F5
:10162C00DB431F4913404B603B685B6803F480331A
:10163C00002B06D01A4B1A681949BB6913430B606F
:10164C0006E0174B1A68BB69DB43154913400B6066
:10165C007B6A01337B623B681A687B6A22FA03F36C
:10166C00002B7FF4AFAE00BF00BF2C37BD4680BC53
:10167C00704700BF00003210000031100000221033
:10168C000000211000001210000011100010024088
:10169C000000014000080140000C01400010014016
:1016AC000004014080B485B000AF78600B467B80AD
:1016BC007B689A687B881340002B02D00123FB7354
:1016CC0001E00023FB73FB7B18461437BD4680BC3E
:1016DC00704780B483B000AF78600B467B801346B4
:1016EC007B707B78002B03D07A887B681A6103E0CF
:1016FC007B881A047B681A6100BF0C37BD4680BC1E
:10170C00704780B485B000AF78600B467B807B68F7
:10171C00DB68FB607A88FB6813401A04FB68D943CA
:10172C007B880B401A437B681A6100BF1437BD4697
:10173C0080BC704780B586B000AF78607B68002BAA
:10174C0001D101236CE27B681B6803F00103002BC1
:10175C0000F08780924B5B6803F00C03042B0CD0D9
:10176C008F4B5B6803F00C03082B12D18C4B5B681E
:10177C0003F48033B3F5803F0BD1894B1B6803F422
:10178C000033002B6CD07B685B68002B68D1012385
:10179C0046E27B685B68B3F5803F06D1804B1B68E3
:1017AC007F4A43F4803313602EE07B685B68002B28
:1017BC000CD17B4B1B687A4A23F480331360784B33
:1017CC001B68774A23F4802313601DE07B685B68F9
:1017DC00B3F5A02F0CD1724B1B68714A43F48023D4
:1017EC0013606F4B1B686E4A43F4803313600BE03D
:1017FC006B4B1B686A4A23F480331360684B1B687D
:10180C00674A23F4802313607B685B68002B13D03A
:10181C00FFF7B6FC386108E0FFF7B2FC02463B6903
:10182C00D31A642B01D90323FAE15D4B1B6803F433
:10183C000033002BF0D014E0FFF7A2FC386108E075
:10184C00FFF79EFC02463B69D31A642B01D9032394
:10185C00E6E1534B1B6803F40033002BF0D100E09E
:10186C0000BF7B681B6803F00203002B63D04C4B5A
:10187C005B6803F00C03002B0BD0494B5B6803F047
:10188C000C03082B1CD1464B5B6803F48033002BF4
:10189C0016D1434B1B6803F00203002B05D07B6869
:1018AC001B69012B01D00123BAE13D4B1B6823F0CE
:1018BC00F8027B685B69DB00394913430B603AE043
:1018CC007B681B69002B20D0364B01221A60FFF776
:1018DC0057FC386108E0FFF753FC02463B69D31A0A
:1018EC00022B01D903239BE12D4B1B6803F0020350
:1018FC00002BF0D02A4B1B6823F0F8027B685B6945
:10190C00DB00274913430B6015E0264B00221A60BD
:10191C00FFF736FC386108E0FFF732FC02463B6902
:10192C00D31A022B01D903237AE11D4B1B6803F058
:10193C000203002BF0D17B681B6803F00803002B1B
:10194C003AD07B689B69002B19D0174B01221A6087
:10195C00FFF716FC386108E0FFF712FC02463B6902
:10196C00D31A022B01D903235AE10D4B5B6A03F006
:10197C000203002BF0D0012000F09AFA1CE00A4B75
:10198C0000221A60FFF7FCFB38610FE0FFF7F8FB51
:10199C0002463B69D31A022B08D9032340E100BF4E
:1019AC000010024000004242800442429E4B5B6A9F
:1019BC0003F00203002BE9D17B681B6803F00403DE
:1019CC00002B00F0A6800023FB75974BDB6903F01E
:1019DC008053002B0DD1944BDB69934A43F0805319
:1019EC00D361914BDB6903F08053BB60BB6801236F
:1019FC00FB758E4B1B6803F48073002B18D18B4B3B
:101A0C001B688A4A43F480731360FFF7B9FB386193
:101A1C0008E0FFF7B5FB02463B69D31A642B01D9EA
:101A2C000323FDE0814B1B6803F48073002BF0D083
:101A3C007B68DB68012B06D17B4B1B6A7A4A43F02F
:101A4C00010313622DE07B68DB68002B0CD1764B15
:101A5C001B6A754A23F001031362734B1B6A724AAB
:101A6C0023F0040313621CE07B68DB68052B0CD1AC
:101A7C006D4B1B6A6C4A43F0040313626A4B1B6A7E
:101A8C00694A43F0010313620BE0674B1B6A664A19
:101A9C0023F001031362644B1B6A634A23F00403B3
:101AAC0013627B68DB68002B15D0FFF769FB38618C
:101ABC000AE0FFF765FB02463B69D31A41F2883214
:101ACC00934201D90323ABE0574B1B6A03F002038B
:101ADC00002BEED014E0FFF753FB38610AE0FFF760
:101AEC004FFB02463B69D31A41F28832934201D92B
:101AFC00032395E04C4B1B6A03F00203002BEED141
:101B0C00FB7D012B05D1484BDB69474A23F0805301
:101B1C00D3617B68DB69002B00F08180424B5B68F2
:101B2C0003F00C03082B61D07B68DB69022B46D1D8
:101B3C003F4B00221A60FFF723FB386108E0FFF7E8
:101B4C001FFB02463B69D31A022B01D9032367E022
:101B5C00354B1B6803F00073002BF0D17B681B6ABC
:101B6C00B3F5803F08D1304B5B6823F400327B68BF
:101B7C009B682D4913434B602B4B5B6823F4741209
:101B8C007B68196A7B685B6A0B43274913434B607C
:101B9C00274B01221A60FFF7F3FA386108E0FFF7D0
:101BAC00EFFA02463B69D31A022B01D9032337E023
:101BBC001D4B1B6803F00073002BF0D02FE01C4B67
:101BCC0000221A60FFF7DCFA386108E0FFF7D8FA58
:101BDC0002463B69D31A022B01D9032320E0124B96
:101BEC001B6803F00073002BF0D118E07B68DB69F5
:101BFC00012B01D1012313E00B4B5B68FB60FB68ED
:101C0C0003F480327B681B6A9A4206D1FB6803F4AA
:101C1C0070127B685B6A9A4201D0012300E00023BA
:101C2C0018461837BD4680BD0010024000700040B9
:101C3C006000424280B584B000AF786039607B6848
:101C4C00002B01D10123D0E06A4B1B6803F0070382
:101C5C003A689A4210D9674B1B6823F00702654912
:101C6C003B6813430B60634B1B6803F007033A6834
:101C7C009A4201D00123B8E07B681B6803F0020391
:101C8C00002B20D07B681B6803F00403002B05D0CD
:101C9C00594B5B68584A43F4E06353607B681B689C
:101CAC0003F00803002B05D0534B5B68524A43F4F6
:101CBC0060535360504B5B6823F0F0027B689B6869
:101CCC004D4913434B607B681B6803F00103002BE9
:101CDC0040D07B685B68012B07D1474B1B6803F432
:101CEC000033002B15D101237FE07B685B68022B4E
:101CFC0007D1414B1B6803F00073002B09D1012362
:101D0C0073E03D4B1B6803F00203002B01D1012350
:101D1C006BE0394B5B6823F003027B685B683649E8
:101D2C0013434B60FFF72CFAF8600AE0FFF728FA30
:101D3C000246FB68D31A41F28832934201D903233D
:101D4C0053E02D4B5B6803F00C027B685B689B00D7
:101D5C009A42EBD1274B1B6803F007033A689A426F
:101D6C0010D2244B1B6823F0070222493B68134313
:101D7C000B60204B1B6803F007033A689A4201D0B2
:101D8C00012332E07B681B6803F00403002B08D0AE
:101D9C00194B5B6823F4E0627B68DB6816491343DC
:101DAC004B607B681B6803F00803002B09D0124BB7
:101DBC005B6823F460527B681B69DB000E4913439C
:101DCC004B6000F021F802460B4B5B681B0903F0DB
:101DDC000F030A49CB5C22FA03F3094A1360094B3F
:101DEC001B681846FFF78AF9002318461037BD46C2
:101DFC0080BD00BF002002400010024038270008C0
:101E0C002C0000203400002080B487B000AF0023E9
:101E1C00FB600023BB6000237B6100237B600023FD
:101E2C003B611E4B5B68FB60FB6803F00C03042BEF
:101E3C0002D0082B03D027E0194B3B6127E0FB684D
:101E4C009B0C03F00F03174AD35C7B60FB6803F415
:101E5C008033002B10D0114B5B685B0C03F001033B
:101E6C00114AD35CBB607B680D4A02FB03F2BB6872
:101E7C00B2FBF3F37B6104E07B680C4A02FB03F3D7
:101E8C007B617B693B6102E0054B3B6100BF3B69B9
:101E9C0018461C37BD4680BC704700BF001002407E
:101EAC0000127A00482700085827000800093D0056
:101EBC0080B485B000AF78600A4B1B680A4AA2FB5D
:101ECC0003235B0A7A6802FB03F3FB6000BFFB6829
:101EDC005A1EFA60002BF9D100BF00BF1437BD4663
:101EEC0080BC70472C000020D34D621080B582B0AE
:101EFC0000AF78607B68002B01D1012341E07B6847
:101F0C0093F83D30DBB2002B06D17B68002283F8BE
:101F1C003C207868FEF788FF7B68022283F83D201E
:101F2C007B681A687B6804331946104600F06EFA19
:101F3C007B68012283F846207B68012283F83E20CF
:101F4C007B68012283F83F207B68012283F84020C4
:101F5C007B68012283F841207B68012283F84220B0
:101F6C007B68012283F843207B68012283F844209C
:101F7C007B68012283F845207B68012283F83D2091
:101F8C00002318460837BD4680BD000080B485B0DC
:101F9C0000AF78607B6893F83D30DBB2012B01D049
:101FAC00012335E07B68022283F83D207B681B68A7
:101FBC00DA687B681B6842F00102DA607B681B6898
:101FCC00164A934209D07B681B68B3F1804F04D04A
:101FDC007B681B68124A934211D17B681B689B6813
:101FEC0003F00703FB60FB68062B10D07B681B68B3
:101FFC001A687B681B6842F001021A6007E07B6874
:10200C001B681A687B681B6842F001021A60002387
:10201C0018461437BD4680BC704700BF002C0140E9
:10202C000004004080B582B000AF78607B681B680C
:10203C001B6903F00203022B22D17B681B68DB684F
:10204C0003F00203022B1BD17B681B686FF00202AA
:10205C001A617B6801221A777B681B689B6903F005
:10206C000303002B03D0786800F0B4F905E078681E
:10207C0000F0A7F9786800F0B6F97B6800221A77AF
:10208C007B681B681B6903F00403042B22D17B685B
:10209C001B68DB6803F00403042B1BD17B681B68F3
:1020AC006FF004021A617B6802221A777B681B6846
:1020BC009B6903F44073002B03D0786800F08AF915
:1020CC0005E0786800F07DF9786800F08CF97B68A1
:1020DC0000221A777B681B681B6903F00803082B26
:1020EC0022D17B681B68DB6803F00803082B1BD12B
:1020FC007B681B686FF008021A617B6804221A77F0
:10210C007B681B68DB6903F00303002B03D0786842
:10211C0000F060F905E0786800F053F9786800F099
:10212C0062F97B6800221A777B681B681B6903F0D5
:10213C001003102B22D17B681B68DB6803F01003A3
:10214C00102B1BD17B681B686FF010021A617B6827
:10215C0008221A777B681B68DB6903F44073002B39
:10216C0003D0786800F036F905E0786800F029F9BA
:10217C00786800F038F97B6800221A777B681B6856
:10218C001B6903F00103012B0ED17B681B68DB6814
:10219C0003F00103012B07D17B681B686FF0010270
:1021AC001A617868FEF7E2FC7B681B681B6903F018
:1021BC008003802B0ED17B681B68DB6803F08003E7
:1021CC00802B07D17B681B686FF080021A617868DE
:1021DC0000F06BFA7B681B681B6903F04003402B13
:1021EC000ED17B681B68DB6803F04003402B07D1E2
:1021FC007B681B686FF040021A61786800F0FCF88D
:10220C007B681B681B6903F02003202B0ED17B68B5
:10221C001B68DB6803F02003202B07D17B681B684D
:10222C006FF020021A61786800F036FA00BF0837A8
:10223C00BD4680BD80B584B000AF786039600023A6
:10224C00FB737B6893F83C30012B01D10223B4E083
:10225C007B68012283F83C207B68022283F83D20B6
:10226C007B681B689B68BB60BB6823F07703BB6013
:10227C00BB6823F47F43BB607B681B68BA689A60B9
:10228C003B681B68B3F5005F3ED0B3F5005F00F20E
:10229C008780B3F5805F00F08680B3F5805F7FD8D0
:1022AC00702B1AD0702B7BD8602B50D0602B77D82A
:1022BC00502B3CD0502B73D8402B58D0402B6FD880
:1022CC00302B64D0302B6BD8202B60D0202B67D8D0
:1022DC00002B5CD0102B5AD062E07B6818683B68EE
:1022EC0099683B685A683B68DB6800F05EF97B686C
:1022FC001B689B68BB60BB6843F07703BB607B6863
:10230C001B68BA689A604FE07B6818683B689968EC
:10231C003B685A683B68DB6800F047F97B681B68D0
:10232C009A687B681B6842F480429A603CE07B6848
:10233C0018683B6859683B68DB681A4600F0BEF8C1
:10234C007B681B685021184600F015F92CE07B685F
:10235C0018683B6859683B68DB681A4600F0DCF883
:10236C007B681B686021184600F005F91CE07B684F
:10237C0018683B6859683B68DB681A4600F09EF8A1
:10238C007B681B684021184600F0F5F80CE07B6870
:10239C001A683B681B681946104600F0ECF803E01D
:1023AC000123FB7300E000BF7B68012283F83D2012
:1023BC007B68002283F83C20FB7B18461037BD4617
:1023CC0080BD80B483B000AF786000BF0C37BD46D1
:1023DC0080BC704780B483B000AF786000BF0C370E
:1023EC00BD4680BC704780B483B000AF786000BF3E
:1023FC000C37BD4680BC704780B483B000AF7860AA
:10240C0000BF0C37BD4680BC7047000080B485B05F
:10241C0000AF786039607B681B68FB607B68254A7D
:10242C00934207D07B68B3F1804F03D07B68224A7C
:10243C00934208D1FB6823F07003FB603B685B6838
:10244C00FA681343FB607B681A4A934207D07B6897
:10245C00B3F1804F03D07B68174A934208D1FB68D5
:10246C0023F44073FB603B68DB68FA681343FB6042
:10247C00FB6823F080023B685B691343FB607B685D
:10248C00FA681A603B689A687B68DA623B681A687B
:10249C007B689A627B68074A934203D13B681A694E
:1024AC007B681A637B6801225A6100BF1437BD46F2
:1024BC0080BC7047002C01400004004080B487B001
:1024CC0000AFF860B9607A60FB681B6A7B61FB68DF
:1024DC001B6A23F00102FB681A62FB689B693B6173
:1024EC003B6923F0F0033B617B681B013A691343A2
:1024FC003B617B6923F00A037B617A69BB681343F8
:10250C007B61FB683A699A61FB687A691A6200BF61
:10251C001C37BD4680BC704780B487B000AFF860F4
:10252C00B9607A60FB681B6A7B61FB681B6A23F0ED
:10253C001002FB681A62FB689B693B613B6923F4E0
:10254C0070433B617B681B033A6913433B617B69B6
:10255C0023F0A0037B61BB681B017A6913437B6189
:10256C00FB683A699A61FB687A691A6200BF1C378A
:10257C00BD4680BC704780B485B000AF78603960D0
:10258C007B689B68FB60FB6823F07003FB603A6818
:10259C00FB68134343F00703FB607B68FA689A609F
:1025AC0000BF1437BD4680BC704780B487B000AF05
:1025BC00F860B9607A603B60FB689B687B617B6903
:1025CC0023F47F437B613B681A027B681A43BB6828
:1025DC0013437A6913437B61FB687A699A6000BF85
:1025EC001C37BD4680BC704780B485B000AF7860A6
:1025FC0039607B6893F83C30012B01D1022341E018
:10260C007B68012283F83C207B68022283F83D2002
:10261C007B681B685B68FB607B681B689B68BB60A6
:10262C00FB6823F07003FB603B681B68FA6813437C
:10263C00FB607B681B68FA685A607B681B68144AED
:10264C00934209D07B681B68B3F1804F04D07B6840
:10265C001B68104A93420CD1BB6823F08003BB600B
:10266C003B685B68BA681343BB607B681B68BA68DD
:10267C009A607B68012283F83D207B68002283F8F6
:10268C003C20002318461437BD4680BC704700BF61
:10269C00002C01400004004080B483B000AF78608F
:1026AC0000BF0C37BD4680BC704780B483B000AF10
:1026BC00786000BF0C37BD4680BC704770B50026F3
:1026CC000C4D0D4C641BA410A64209D100F022F84D
:1026DC0000260A4D0A4C641BA410A64205D170BDFD
:1026EC0055F8043B98470136EEE755F8043B9847FC
:1026FC000136F2E75C2700085C2700085C2700081D
:10270C006027000803460244934200D1704703F847
:10271C00011BF9E7F8B500BFF8BC08BC9E46704732
:0C272C00F8B500BFF8BC08BC9E46704722
:102738000000000000000000010203040607080969
:1027480002030405060708090A0B0C0D0E0F1010EA
:04275800010200007A
:04275C00310100083F
:042760000D0100085F
:1027640088130000D0070000B80B0000FFFFFFFF34
:102774000101010001000200040000000900000042
:102784000900000009000000090000000024F40012
:0C2794000A00000010000000010000001E
:04000005080010914E
:00000001FF
